S0150000426C6575746F6F74685F4156522E7372656311
S11300004DC0000068C0000066C0000064C000006D
S113001062C0000060C000005EC000005CC0000060
S11300205AC0000058C0000056C0000054C0000070
S1130030D6C0000050C000004EC000004CC00000FC
S11300404AC0000048C0000099C1000044C000003C
S113005042C0000040C000003EC000003CC00000A0
S11300603AC0000038C0000036C0000034C00000B0
S113007032C0000030C000002EC000002CC00000C0
S11300802AC0000028C0000026C00000DC01E001F6
S1130090E401E801EC01F001F401F80111241FBEB0
S11300A0CFEFD0E1DEBFCDBF11E0A0E0B1E0E4E5E9
S11300B0F4E000E00BBF02C007900D92A431B10739
S11300C0D9F721E0A4E1B1E001C01D92A838B2073C
S11300D0E1F7A8D1BDC194CF811526E9920759F063
S11300E0811522EC920721F08038954249F406C02C
S11300F087E089B905C087E189B902C08FE589B96C
S113010088E18AB986E08093950008958AB1806871
S11301108AB9789408955D9BFECF8CB90895CF93E6
S1130120DF93EC0102C02196F6DF88818111FBCFB9
S1130130DF91CF910895811526E9920761F0811529
S113014022EC920721F08038954261F408C087E0E0
S11301508093990007C087E18093990003C08FE5DD
S11301608093990088E180939A0086E080939D00B3
S1130170089590919B0095FFFCCF80939C00089577
S1130180CF93DF93EC0102C02196F3DF88818111C4
S1130190FBCFDF91CF9108958EB588608EBD85EE3B
S11301A090E09BBD8ABD8EB583608EBD87B78061AC
S11301B087BF789408958FEF82B983B18F7E83B916
S11301C0089583B1806183B9089583B18F7E83B923
S11301D00895F7DF80E091E0A2DFF7CF08951F9242
S11301E00F920FB60F9211248F939F9380918601E3
S11301F090918701019690938701809386018436BC
S1130200910524F010928701109286019F918F919D
S11302100F900FBE0F901F90189580911901813097
S113022039F481E090E090937F0180937E0145C092
S1130230823039F482E090E090937F0180937E01D4
S11302403CC0833039F481E090E090938201809344
S1130250810133C0843039F482E090E090938201CC
S1130260809381012AC0853039F481E090E0909335
S113027085018093840121C0863039F482E090E0C6
S1130280909385018093840118C0873039F483E00A
S113029090E090938501809384010FC0883039F4F5
S11302A084E090E0909385018093840106C082E00D
S11302B090E090937F0180937E0180917E019091E4
S11302C07F01019721F48AEA8093140103C08BEB28
S11302D080931401809114018A3A09F03FC08091FF
S11302E08101909182018130910521F48BEA809300
S11302F0150109C0029721F48CEA8093150103C00B
S11303008BEF809315018091840190918501813058
S1130310910521F48CEC8093160117C0823091056D
S113032021F48DED8093160110C08330910521F4E2
S11303308EEE8093160109C0049721F48AEF80930E
S1130340160103C08CEC8093160110928201109266
S11303508101109285011092840106C0E4E1F1E06C
S11303608CEF81838CEC828387E78093170184E18F
S113037091E0D5DE84E191E003CF08951F920F92BE
S11303800FB60F9211240BB60F922F933F934F93F6
S11303905F936F937F938F939F93AF93BF93EF93E9
S11303A0FF93ECB18E2F90E0FC01F097E830F1055B
S11303B018F5EA5BFF4F43C081E0809319011EC02A
S11303C082E0809319011AC083E08093190116C05A
S11303D084E08093190112C085E0809319010EC056
S11303E086E0809319010AC087E08093190106C052
S11303F088E08093190102C0109219010EDFFF9169
S1130400EF91BF91AF919F918F917F916F915F9188
S11304104F913F912F910F900BBE0F900FBE0F90F5
S11304201F9018958FEF87BB80E092EC84DE80E00C
S113043092EC52DE6BDEB0DEBEDECBDEFFCFEE0F23
S1130440FF1F0024001C0BBE0790F691E02D0994B9
S1070450F894FFCF4A
S113045441542B4E414D453D4843303563686F69E3
S10704640D0A000079
S9030000FC
